:020000040800F2
:100000000000022095750108E5750108E5750108F5
:10001000E5750108E5750108E575010800000000B7
:10002000000000000000000000000000E57501086D
:10003000E575010800000000E57501087B72010804
:10004000E5750108E5750108E5750108E575010824
:10005000E5750108E5750108D1740108E575010829
:10006000E5750108E5750108E5750108E575010804
:10007000E5750108E5750108E5750108E5750108F4
:10008000E5750108E5750108E57501080000000047
:10009000000000000000000000000000E5750108FD
:1000A000E5750108E5750108E5750108E5750108C4
:1000B000E5750108E5750108E5750108E5750108B4
:1000C000E5750108E5750108E5750108E5750108A4
:1000D000E5750108E5750108E575010800000000F7
:1000E000E5750108E5750108E575010800000000E7
:1000F000000000000000000000000000E57501089D
:1001000000000000E5750108E5750108E5750108C6
:1001100000000000000000000000000000000000DF
:10012000E5750108E5750108E5750108E575010843
:10013000E57501080000000000000000000000005C
:10014000000000000000000000000000E57501084C
:10015000E5750108E5750108E5750108E575010813
:10016000E5750108E57501080000000000000000C9
:10017000000000000000000000000000000000007F
:1001800000000000E575010800000000000000000C
:08019000E5750108E5750108A1
:1001A000A3F5803A704700BF174B002B08BF134BD5
:1001B0009D46FFF7F5FF00218B460F461348144A72
:1001C000121A18F077FB0E4B002B00D098470D4BFE
:1001D000002B00D098470020002104000D000D489E
:1001E000002802D00C48AFF3008017F00FFA20006F
:1001F000290000F0CDF817F0F7F900BF0000080063
:10020000000000000000000000000000700000205E
:10021000400300200000000000000000A09401083E
:10022000000000207000002070000020400300202B
:1002300001F0FF01102A2BDB10F0070F08D010F897
:10024000013B013A8B422DD010F0070F42B3F6D19B
:10025000F0B441EA012141EA014122F007047FF0B4
:1002600000070023F0E80256083C85EA010586EA0B
:10027000010685FA47F5A3FA87F586FA47F6A5FA47
:1002800087F68EB9EED1F0BC01F0FF0102F0070253
:1002900032B110F8013B013A83EA010313B1F8D1FE
:1002A0000020704701387047002D06BF35460338DF
:1002B000073815F0010F07D1013015F4807F02BF18
:1002C000013015F4C03F0130F0BC0138704700BF69
:1002D00053B94AB9002908BF00281CBF4FF0FF31AD
:1002E0004FF0FF3000F00CB8ADF1080C6DE904CE12
:1002F00018F024FEDDF804E0DDE9022304B07047C5
:10030000704700BF0348044B834202D0034B03B144
:1003100018477047700000207000002000000000A7
:100320000548064B1B1AD90F01EBA301491002D057
:10033000034B03B118477047700000207000002085
:100340000000000010B5064C237843B9FFF7DAFF30
:10035000044B13B10448AFF300800123237010BD98
:100360007000002000000000F891010808B5054B5E
:100370001BB105490548AFF30080BDE80840FFF711
:10038000CFBF00BF0000000074000020F8910108FA
:1003900080B500AF08220821164800F095F91548ED
:1003A00000F02EF918E0134817F0A4F8114800F0F7
:1003B00047F9104800F0B4F80E4800F058F803462A
:1003C000002B02D00B4800F01BF90A4816F026FF5C
:1003D0004FF4967016F0FCFE064B9B6A002BE2D1A0
:1003E000044800F00DF9034800F0BBF9002318465B
:1003F00080BD00BF8C00002080B582B000AF786067
:100400007B68184617F0FEFD034618460837BD46C0
:1004100080BD80B582B000AF7860786817F0FAFDD3
:1004200000BF0837BD4680BD80B485B000AF78609E
:100430007B685B69FB6010E0FB685A687B681B683F
:100440009A4207D1FB689A687B685B689A4201D13F
:10045000012306E0FB681B68FB60FB68002BEBD107
:10046000002318461437BD465DF8047B704780B4FE
:1004700085B000AF78607B685B69FB6010E07B68EB
:10048000DA68FB685B689A4207D17B681A69FB6887
:100490009B689A4201D101231DE0FB681B68FB6049
:1004A000FB681B68002BEAD17B68DB68002B0FDB45
:1004B0007B68DA687B68DB699A4209DA7B681B69CA
:1004C000002B05DB7B681A697B681B6A9A4201DB9B
:1004D000012300E0002318461437BD465DF8047B75
:1004E000704780B582B000AF78607B68DB691846E2
:1004F00016F099FF02467B681A607B681B6A1846F3
:1005000016F091FF02467B685A607868FFF78CFF0F
:100510000346002BE9D100BF00BF0837BD4680BDB0
:1005200080B584B000AF78607B685B69FB600CE0ED
:10053000FB681B685A68FB685A60FB681B689A680E
:10054000FB689A60FB681B68FB60FB681B68002BFC
:10055000EED17868FFF768FF0346002B22D00C200D
:1005600017F050FD0346BB60BB68002B06D1234843
:1005700017F080FC7B6800229A623CE07B685B6934
:100580005A68BB685A607B685B699A68BB689A6006
:100590007B685A69BB681A607B68BA685A61786878
:1005A000FFF79FFF7B681B7E032B23D801A252F825
:1005B00023F000BFE9050008DD050008D1050008AB
:1005C000C5050008FB685B685A1EFB685A6012E0AC
:1005D000FB689B685A1CFB689A600CE0FB685B68D0
:1005E0005A1CFB685A6006E0FB689B685A1EFB6851
:1005F0009A6000E000BF1037BD4680BD249301081B
:1006000080B582B000AF78607B68DB69DA0F134495
:100610005B1019467B681B6ADA0F13445B101A469D
:10062000786800F0BEF87868FFF75BFF7B6804220B
:100630001A767B6801229A6200BF0837BD4680BDEA
:1006400080B483B000AF78607B6893F82430032BCC
:100650002AD801A252F823F069060008790600089A
:1006600089060008990600087B681B7E022B1DD0B6
:100670007B6800221A7619E07B681B7E032B17D05B
:100680007B6801221A7613E07B681B7E002B11D059
:100690007B6802221A760DE07B681B7E012B0BD053
:1006A0007B6803221A7607E000BF06E000BF04E083
:1006B00000BF02E000BF00E000BF00BF0C37BD4636
:1006C0005DF8047B704700BF80B584B000AFF86070
:1006D000B9607A60FB6800221A60FB6800225A60E9
:1006E000FB6800229A60FB680022DA60FB68002247
:1006F0001A61FB6800225A61FB6804221A76FB68C3
:1007000001229A62FB680822DA61FB6808221A62F9
:10071000FB68042283F82420FB680022DA62FB686D
:1007200000221A63F86816F041FD0346002B13D02F
:10073000F86816F064FE0346002B0DD0F86816F03A
:1007400087FD0346002B07D0F86816F0A9FE034684
:10075000002B01D0012300E0002318461037BD46CE
:1007600080BD80B582B000AF7860786816F06DFE0D
:10077000786816F078FD786816F0CBFE786816F089
:1007800020FD00BF0837BD4680BD80B485B000AFF6
:10079000F860B9607A6000BF1437BD465DF8047B2D
:1007A000704780B586B000AFF860B9607A60FB68CA
:1007B0005B697B6107E07B691B683B61786917F0C7
:1007C00029FC3B697B617B69002B04D0FB68083303
:1007D0007A699A42EFD1FB6803F10802FB685A611B
:1007E000FB685B6900221A60FB68BA68DA60FB6824
:1007F0007A681A6100BF1837BD4680BD80B582B0E7
:1008000000AF78607B68002B01D1012341E07B6859
:1008100093F83D30DBB2002B06D17B68002283F8D1
:100820003C20786800F08DF87B68022283F83D2038
:100830007B681A687B6804331946104605F004F992
:100840007B68012283F846207B68012283F83E20E2
:100850007B68012283F83F207B68012283F84020D7
:100860007B68012283F841207B68012283F84220C3
:100870007B68012283F843207B68012283F84420AF
:100880007B68012283F845207B68012283F83D20A4
:10089000002318460837BD4680BD80B582B000AF42
:1008A00078607B68022283F83D207B681B681A6AA7
:1008B00041F211131340002B0FD17B681B681A6A99
:1008C00040F244431340002B07D17B681B681A6831
:1008D0007B681B6822F001021A60786800F03BF820
:1008E0007B68002283F846207B68002283F83E2044
:1008F0007B68002283F83F207B68002283F8402039
:100900007B68002283F841207B68002283F8422024
:100910007B68002283F843207B68002283F8442010
:100920007B68002283F845207B68002283F83D2005
:100930007B68002283F83C20002318460837BD4618
:1009400080BD80B483B000AF786000BF0C37BD4677
:100950005DF8047B704780B483B000AF786000BF5F
:100960000C37BD465DF8047B7047000080B485B04D
:1009700000AF78607B6893F83D30DBB2012B01D08B
:1009800001233CE07B68022283F83D207B681B68E2
:100990001E4A934218D07B681B68B3F1804F13D076
:1009A0007B681B681A4A93420ED07B681B68194A01
:1009B000934209D07B681B68174A934204D07B6836
:1009C0001B68164A934211D17B681B689B6803F031
:1009D0000703FB60FB68062B10D07B681B681A6856
:1009E0007B681B6842F001021A6007E07B681B68A5
:1009F0001A687B681B6842F001021A6000231846DF
:100A00001437BD465DF8047B704700BF000001400D
:100A10000004004000080040000C0040004001407D
:100A200080B483B000AF78607B681B681A6A41F2BB
:100A300011131340002B0FD17B681B681A6A40F218
:100A400044431340002B07D17B681B681A687B68FE
:100A50001B6822F001021A607B68012283F83D20A6
:100A6000002318460C37BD465DF8047B7047000034
:100A700080B485B000AF78607B6893F83D30DBB21E
:100A8000012B01D0012344E07B68022283F83D2042
:100A90007B681B68DA687B681B6842F00102DA60D9
:100AA0007B681B681E4A934218D07B681B68B3F1B1
:100AB000804F13D07B681B681A4A93420ED07B6824
:100AC0001B68194A934209D07B681B68174A9342F6
:100AD00004D07B681B68164A934211D17B681B685F
:100AE0009B6803F00703FB60FB68062B10D07B6854
:100AF0001B681A687B681B6842F001021A6007E0F5
:100B00007B681B681A687B681B6842F001021A60E8
:100B1000002318461437BD465DF8047B704700BFBC
:100B2000000001400004004000080040000C0040AC
:100B30000040014080B483B000AF78607B681B68E0
:100B4000DA687B681B6822F00102DA607B681B6848
:100B50001A6A41F211131340002B0FD17B681B68F6
:100B60001A6A40F244431340002B07D17B681B688C
:100B70001A687B681B6822F001021A607B680122F8
:100B800083F83D20002318460C37BD465DF8047BF2
:100B90007047000080B586B000AFF860B9601346BA
:100BA000FB80FB6893F83D30DBB2022B01D10223BE
:100BB00070E0FB6893F83D30DBB2012B25D1BB68B8
:100BC000002B04D1FB88002B01D0012362E0FB68DD
:100BD000022283F83D20FB681B6A304ADA63FB6817
:100BE0001B6A2F4A1A64FB681B6A2E4ADA64FB6888
:100BF000186AB968FB681B682C331A46FB8813F027
:100C0000E6FB0346002B04D001E0012342E0012370
:100C100040E0FB681B68DA68FB681B6842F480727E
:100C2000DA60FB681B68204A934218D0FB681B6897
:100C3000B3F1804F13D0FB681B681C4A93420ED05F
:100C4000FB681B681A4A934209D0FB681B68194A63
:100C5000934204D0FB681B68174A934211D1FB688A
:100C60001B689B6803F007037B617B69062B10D030
:100C7000FB681B681A68FB681B6842F001021A6077
:100C800007E0FB681B681A68FB681B6842F00102FA
:100C90001A60002318461837BD4680BDB5590008B4
:100CA000E3590008E356000800000140000400403A
:100CB00000080040000C00400040014080B582B0B8
:100CC00000AF78607B681B68DA687B681B6822F479
:100CD0008072DA607B681B6A184613F040FC7B6800
:100CE0001B681A6A41F211131340002B0FD17B6865
:100CF0001B681A6A40F244431340002B07D17B68FB
:100D00001B681A687B681B6822F001021A607B6806
:100D1000012283F83D20002318460837BD4680BDD8
:100D200080B582B000AF78607B68002B01D10123D1
:100D300041E07B6893F83D30DBB2002B06D17B6845
:100D4000002283F83C20786800F08DF87B6802224E
:100D500083F83D207B681A687B6804331946104687
:100D600004F072FE7B68012283F846207B68012232
:100D700083F83E207B68012283F83F207B680122B4
:100D800083F840207B68012283F841207B680122A0
:100D900083F842207B68012283F843207B6801228C
:100DA00083F844207B68012283F845207B68012278
:100DB00083F83D20002318460837BD4680BD80B526
:100DC00082B000AF78607B68022283F83D207B68A8
:100DD0001B681A6A41F211131340002B0FD17B6874
:100DE0001B681A6A40F244431340002B07D17B680A
:100DF0001B681A687B681B6822F001021A60786819
:100E000000F03BF87B68002283F846207B680022D4
:100E100083F83E207B68002283F83F207B68002215
:100E200083F840207B68002283F841207B68002201
:100E300083F842207B68002283F843207B680022ED
:100E400083F844207B68002283F845207B680022D9
:100E500083F83D207B68002283F83C20002318465D
:100E60000837BD4680BD80B483B000AF786000BF56
:100E70000C37BD465DF8047B704780B483B000AF8B
:100E8000786000BF0C37BD465DF8047B70470000FA
:100E900080B584B000AF786039603B68002B09D121
:100EA0007B6893F83E30DBB2012B14BF0123002393
:100EB000DBB222E03B68042B09D17B6893F83F301A
:100EC000DBB2012B14BF01230023DBB215E03B682A
:100ED000082B09D17B6893F84030DBB2012B14BF9B
:100EE00001230023DBB208E07B6893F84130DBB2DA
:100EF000012B14BF01230023DBB2002B01D00123FF
:100F000068E03B68002B04D17B68022283F83E2016
:100F100013E03B68042B04D17B68022283F83F2056
:100F20000BE03B68082B04D17B68022283F8402049
:100F300003E07B68022283F841207B681B68012262
:100F40003968184605F0D6F97B681B68234A934236
:100F500007D17B681B685A6C7B681B6842F40042AF
:100F60005A647B681B681D4A934218D07B681B68D3
:100F7000B3F1804F13D07B681B68194A93420ED09F
:100F80007B681B68174A934209D07B681B68164A26
:100F9000934204D07B681B68144A934211D17B684A
:100FA0001B689B6803F00703FB60FB68062B10D0EF
:100FB0007B681B681A687B681B6842F001021A6034
:100FC00007E07B681B681A687B681B6842F00102B7
:100FD0001A60002318461037BD4680BD000001404E
:100FE0000004004000080040000C004000400140A8
:100FF00080B582B000AF786039607B681B680022E2
:101000003968184605F076F97B681B68294A9342CF
:1010100017D17B681B681A6A41F211131340002B29
:101020000FD17B681B681A6A40F244431340002BBF
:1010300007D17B681B685A6C7B681B6822F40042EE
:101040005A647B681B681A6A41F211131340002B23
:101050000FD17B681B681A6A40F244431340002B8F
:1010600007D17B681B681A687B681B6822F0010245
:101070001A603B68002B04D17B68012283F83E2074
:1010800013E03B68042B04D17B68012283F83F20E6
:101090000BE03B68082B04D17B68012283F84020D9
:1010A00003E07B68012283F84120002318460837BB
:1010B000BD4680BD0000014080B584B000AF7860BF
:1010C00039600023FB733B68002B09D17B6893F8E0
:1010D0003E30DBB2012B14BF01230023DBB222E040
:1010E0003B68042B09D17B6893F83F30DBB2012BBE
:1010F00014BF01230023DBB215E03B68082B09D1A4
:101100007B6893F84030DBB2012B14BF012300232E
:10111000DBB208E07B6893F84130DBB2012B14BFEF
:1011200001230023DBB2002B01D00123B3E03B6895
:10113000002B04D17B68022283F83E2013E03B6839
:10114000042B04D17B68022283F83F200BE03B682C
:10115000082B04D17B68022283F8402003E07B68DF
:10116000022283F841203B680C2B41D801A252F89F
:1011700023F000BFA9110008F1110008F1110008C7
:10118000F1110008BB110008F1110008F11100086D
:10119000F1110008CD110008F1110008F11100084B
:1011A000F1110008DF1100087B681B68DA687B68B2
:1011B0001B6842F00202DA601DE07B681B68DA6897
:1011C0007B681B6842F00402DA6014E07B681B68ED
:1011D000DA687B681B6842F00802DA600BE07B6823
:1011E0001B68DA687B681B6842F01002DA6002E074
:1011F0000123FB7300BFFB7B002B4BD17B681B687B
:1012000001223968184605F075F87B681B68244A86
:10121000934207D17B681B685A6C7B681B6842F459
:1012200000425A647B681B681D4A934218D07B6851
:101230001B68B3F1804F13D07B681B68194A934237
:101240000ED07B681B68184A934209D07B681B68E4
:10125000164A934204D07B681B68154A934211D109
:101260007B681B689B6803F00703BB60BB68062BA9
:1012700010D07B681B681A687B681B6842F001020B
:101280001A6007E07B681B681A687B681B6842F07D
:1012900001021A60FB7B18461037BD4680BD00BFB7
:1012A000000001400004004000080040000C004025
:1012B0000040014080B584B000AF78603960002301
:1012C000FB733B680C2B41D801A252F823F000BFFE
:1012D000051300084D1300084D1300084D130008B6
:1012E000171300084D1300084D1300084D13000894
:1012F000291300084D1300084D1300084D13000872
:101300003B1300087B681B68DA687B681B6822F067
:101310000202DA601DE07B681B68DA687B681B6884
:1013200022F00402DA6014E07B681B68DA687B68EC
:101330001B6822F00802DA600BE07B681B68DA6841
:101340007B681B6822F01002DA6002E00123FB7365
:1013500000BFFB7B002B57D17B681B6800223968DC
:10136000184604F0C7FF7B681B682A4A934217D1CE
:101370007B681B681A6A41F211131340002B0FD1CE
:101380007B681B681A6A40F244431340002B07D164
:101390007B681B685A6C7B681B6822F400425A64A5
:1013A0007B681B681A6A41F211131340002B0FD19E
:1013B0007B681B681A6A40F244431340002B07D134
:1013C0007B681B681A687B681B6822F001021A6040
:1013D0003B68002B04D17B68012283F83E2013E098
:1013E0003B68042B04D17B68012283F83F200BE08B
:1013F0003B68082B04D17B68012283F8402003E07E
:101400007B68012283F84120FB7B18461037BD46DC
:1014100080BD00BF0000014080B586B000AFF8601D
:10142000B9607A607B800023FB75BB68002B09D113
:10143000FB6893F83E30DBB2022B0CBF0123002384
:10144000DBB222E0BB68042B09D1FB6893F83F3084
:10145000DBB2022B0CBF01230023DBB215E0BB681B
:10146000082B09D1FB6893F84030DBB2022B0CBF8C
:1014700001230023DBB208E0FB6893F84130DBB2C4
:10148000022B0CBF01230023DBB2002B01D002236F
:101490005DE1BB68002B09D1FB6893F83E30DBB2FD
:1014A000012B0CBF01230023DBB222E0BB68042B1D
:1014B00009D1FB6893F83F30DBB2012B0CBF01234D
:1014C0000023DBB215E0BB68082B09D1FB6893F859
:1014D0004030DBB2012B0CBF01230023DBB208E05C
:1014E000FB6893F84130DBB2012B0CBF01230023D2
:1014F000DBB2002B24D07B68002B04D17B88002B2F
:1015000001D0012323E1BB68002B04D1FB68022238
:1015100083F83E2016E0BB68042B04D1FB6802224E
:1015200083F83F200EE0BB68082B04D1FB68022241
:1015300083F8402006E0FB68022283F8412001E0A6
:10154000012304E1BB680C2B00F2AE8001A252F82B
:1015500023F000BF89150008A9160008A916000885
:10156000A9160008D1150008A9160008A916000838
:10157000A916000819160008A9160008A9160008DF
:10158000A916000861160008FB685B6A724ADA63F4
:10159000FB685B6A714A1A64FB685B6A704ADA64CA
:1015A000FB68586A7968FB681B6834331A467B8885
:1015B00012F00DFF0346002B01D00123C7E0FB68AA
:1015C0001B68DA68FB681B6842F40072DA606EE040
:1015D000FB689B6A604ADA63FB689B6A5F4A1A642D
:1015E000FB689B6A5E4ADA64FB68986A7968FB6804
:1015F0001B6838331A467B8812F0E9FE0346002B3D
:1016000001D00123A3E0FB681B68DA68FB681B6854
:1016100042F48062DA604AE0FB68DB6A4E4ADA63D1
:10162000FB68DB6A4D4A1A64FB68DB6A4C4ADA6481
:10163000FB68D86A7968FB681B683C331A467B886C
:1016400012F0C5FE0346002B01D001237FE0FB68AA
:101650001B68DA68FB681B6842F40062DA6026E007
:10166000FB681B6B3C4ADA63FB681B6B3B4A1A64E2
:10167000FB681B6B3A4ADA64FB68186B7968FB6895
:101680001B6840331A467B8812F0A1FE0346002BEC
:1016900001D001235BE0FB681B68DA68FB681B680C
:1016A00042F48052DA6002E00123FB7500BFFB7D4B
:1016B000002B4BD1FB681B680122B968184604F067
:1016C00019FEFB681B68274A934207D1FB681B6819
:1016D0005A6CFB681B6842F400425A64FB681B6842
:1016E000204A934218D0FB681B68B3F1804F13D097
:1016F000FB681B681C4A93420ED0FB681B681B4AA0
:10170000934209D0FB681B68194A934204D0FB68D6
:101710001B68184A934211D1FB681B689B6803F051
:1017200007033B613B69062B10D0FB681B681A68F6
:10173000FB681B6842F001021A6007E0FB681B6847
:101740001A68FB681B6842F001021A60FB7D1846AC
:101750001837BD4680BD00BF755700081D580008EA
:10176000E35600080000014000040040000800406B
:10177000000C00400040014080B584B000AF7860AC
:1017800039600023FB733B680C2B55D801A252F83B
:1017900023F000BFC91700083918000839180008DD
:1017A00039180008E517000839180008391800082A
:1017B00039180008011800083918000839180008FD
:1017C000391800081D1800087B681B68DA687B68F8
:1017D0001B6822F40072DA607B685B6A184612F0BC
:1017E000BEFE2CE07B681B68DA687B681B6822F40D
:1017F0008062DA607B689B6A184612F0B0FE1EE0D9
:101800007B681B68DA687B681B6822F40062DA6018
:101810007B68DB6A184612F0A2FE10E07B681B684A
:10182000DA687B681B6822F48052DA607B681B6B85
:10183000184612F094FE02E00123FB7300BFFB7B0D
:10184000002B57D17B681B6800223968184604F0CA
:1018500051FD7B681B682A4A934217D17B681B683D
:101860001A6A41F211131340002B0FD17B681B68D9
:101870001A6A40F244431340002B07D17B681B686F
:101880005A6C7B681B6822F400425A647B681B68B0
:101890001A6A41F211131340002B0FD17B681B68A9
:1018A0001A6A40F244431340002B07D17B681B683F
:1018B0001A687B681B6822F001021A603B68002BE3
:1018C00004D17B68012283F83E2013E03B68042B9F
:1018D00004D17B68012283F83F200BE03B68082B92
:1018E00004D17B68012283F8402003E07B68012259
:1018F00083F84120FB7B18461037BD4680BD00BFF2
:101900000000014080B582B000AF78607B68002B9A
:1019100001D1012341E07B6893F83D30DBB2002B1D
:1019200006D17B68002283F83C20786800F08DF8AF
:101930007B68022283F83D207B681A687B68043349
:101940001946104604F080F87B68012283F846208F
:101950007B68012283F83E207B68012283F83F20C8
:101960007B68012283F840207B68012283F84120B4
:101970007B68012283F842207B68012283F84320A0
:101980007B68012283F844207B68012283F845208C
:101990007B68012283F83D20002318460837BD46A6
:1019A00080BD80B582B000AF78607B68022283F88A
:1019B0003D207B681B681A6A41F211131340002B0B
:1019C0000FD17B681B681A6A40F244431340002B16
:1019D00007D17B681B681A687B681B6822F00102CC
:1019E0001A60786800F03BF87B68002283F8462094
:1019F0007B68002283F83E207B68002283F83F202A
:101A00007B68002283F840207B68002283F8412015
:101A10007B68002283F842207B68002283F8432001
:101A20007B68002283F844207B68002283F84520ED
:101A30007B68002283F83D207B68002283F83C20ED
:101A4000002318460837BD4680BD80B483B000AF80
:101A5000786000BF0C37BD465DF8047B704780B4EA
:101A600083B000AF786000BF0C37BD465DF8047BE3
:101A70007047000080B584B000AF786039603B6883
:101A8000002B09D17B6893F83E30DBB2012B14BFE9
:101A900001230023DBB222E03B68042B09D17B68E1
:101AA00093F83F30DBB2012B14BF01230023DBB2DC
:101AB00015E03B68082B09D17B6893F84030DBB216
:101AC000012B14BF01230023DBB208E07B6893F8ED
:101AD0004130DBB2012B14BF01230023DBB2002B0A
:101AE00001D0012368E03B68002B04D17B6802220F
:101AF00083F83E2013E03B68042B04D17B6802226C
:101B000083F83F200BE03B68082B04D17B6802225E
:101B100083F8402003E07B68022283F841207B6841
:101B20001B6801223968184604F0E4FB7B681B68D7
:101B3000234A934207D17B681B685A6C7B681B68F9
:101B400042F400425A647B681B681D4A934218D0D5
:101B50007B681B68B3F1804F13D07B681B68194A00
:101B600093420ED07B681B68174A934209D07B686A
:101B70001B68164A934204D07B681B68144A934240
:101B800011D17B681B689B6803F00703FB60FB684F
:101B9000062B10D07B681B681A687B681B6842F0B4
:101BA00001021A6007E07B681B681A687B681B6883
:101BB00042F001021A60002318461037BD4680BD6E
:101BC000000001400004004000080040000C0040FC
:101BD0000040014080B582B000AF786039607B681A
:101BE0001B6800223968184604F084FB7B681B6878
:101BF000294A934217D17B681B681A6A41F2111374
:101C00001340002B0FD17B681B681A6A40F24443D3
:101C10001340002B07D17B681B685A6C7B681B68DC
:101C200022F400425A647B681B681A6A41F211135D
:101C30001340002B0FD17B681B681A6A40F24443A3
:101C40001340002B07D17B681B681A687B681B68F0
:101C500022F001021A603B68002B04D17B6801224C
:101C600083F83E2013E03B68042B04D17B680122FB
:101C700083F83F200BE03B68082B04D17B680122EE
:101C800083F8402003E07B68012283F84120002391
:101C900018460837BD4680BD0000014080B584B0BD
:101CA00000AF786039600023FB733B68002B09D1DB
:101CB0007B6893F83E30DBB2012B14BF0123002375
:101CC000DBB222E03B68042B09D17B6893F83F30FC
:101CD000DBB2012B14BF01230023DBB215E03B680C
:101CE000082B09D17B6893F84030DBB2012B14BF7D
:101CF00001230023DBB208E07B6893F84130DBB2BC
:101D0000012B14BF01230023DBB2002B01D00123E0
:101D1000B3E03B68002B04D17B68022283F83E20AD
:101D200013E03B68042B04D17B68022283F83F2038
:101D30000BE03B68082B04D17B68022283F840202B
:101D400003E07B68022283F841203B680C2B41D8DA
:101D500001A252F823F000BF8D1D0008D51D000818
:101D6000D51D0008D51D00089F1D0008D51D0008C1
:101D7000D51D0008D51D0008B11D0008D51D00089F
:101D8000D51D0008D51D0008C31D00087B681B6811
:101D9000DA687B681B6842F00202DA601DE07B684B
:101DA0001B68DA687B681B6842F00402DA6014E0A2
:101DB0007B681B68DA687B681B6842F00802DA609F
:101DC0000BE07B681B68DA687B681B6842F01002D6
:101DD000DA6002E00123FB7300BFFB7B002B4BD1D9
:101DE0007B681B6801223968184604F083FA7B6817
:101DF0001B68244A934207D17B681B685A6C7B6836
:101E00001B6842F400425A647B681B681D4A934277
:101E100018D07B681B68B3F1804F13D07B681B68B8
:101E2000194A93420ED07B681B68184A934209D026
:101E30007B681B68164A934204D07B681B68154A6E
:101E4000934211D17B681B689B6803F00703BB605A
:101E5000BB68062B10D07B681B681A687B681B6800
:101E600042F001021A6007E07B681B681A687B6811
:101E70001B6842F001021A60FB7B18461037BD4612
:101E800080BD00BF00000140000400400008004089
:101E9000000C00400040014080B584B000AF786085
:101EA00039600023FB733B680C2B41D801A252F828
:101EB00023F000BFE91E0008311F0008311F000891
:101EC000311F0008FB1E0008311F0008311F0008E9
:101ED000311F00080D1F0008311F0008311F0008C6
:101EE000311F00081F1F00087B681B68DA687B68C9
:101EF0001B6822F00202DA601DE07B681B68DA686A
:101F00007B681B6822F00402DA6014E07B681B68BF
:101F1000DA687B681B6822F00802DA600BE07B68F5
:101F20001B68DA687B681B6822F01002DA6002E046
:101F30000123FB7300BFFB7B002B57D17B681B6821
:101F400000223968184604F0D5F97B681B682A4AD4
:101F5000934217D17B681B681A6A41F21113134030
:101F6000002B0FD17B681B681A6A40F24443134070
:101F7000002B07D17B681B685A6C7B681B6822F4B6
:101F800000425A647B681B681A6A41F211131340BD
:101F9000002B0FD17B681B681A6A40F24443134040
:101FA000002B07D17B681B681A687B681B6822F0CE
:101FB00001021A603B68002B04D17B68012283F880
:101FC0003E2013E03B68042B04D17B68012283F898
:101FD0003F200BE03B68082B04D17B68012283F88B
:101FE000402003E07B68012283F84120FB7B1846F8
:101FF0001037BD4680BD00BF0000014080B586B0EF
:1020000000AFF860B9607A607B800023FB75BB6825
:10201000002B09D1FB6893F83E30DBB2022B0CBFDA
:1020200001230023DBB222E0BB68042B09D1FB684B
:1020300093F83F30DBB2022B0CBF01230023DBB24D
:1020400015E0BB68082B09D1FB6893F84030DBB280
:10205000022B0CBF01230023DBB208E0FB6893F8DE
:102060004130DBB2022B0CBF01230023DBB2002B7B
:1020700001D002235DE1BB68002B09D1FB6893F816
:102080003E30DBB2012B0CBF01230023DBB222E088
:10209000BB68042B09D1FB6893F83F30DBB2012BFE
:1020A0000CBF01230023DBB215E0BB68082B09D16C
:1020B000FB6893F84030DBB2012B0CBF01230023F7
:1020C000DBB208E0FB6893F84130DBB2012B0CBFB8
:1020D00001230023DBB2002B24D07B68002B04D12A
:1020E0007B88002B01D0012323E1BB68002B04D1A6
:1020F000FB68022283F83E2016E0BB68042B04D163
:10210000FB68022283F83F200EE0BB68082B04D155
:10211000FB68022283F8402006E0FB68022283F875
:10212000412001E0012304E1BB680C2B00F2AE80EA
:1021300001A252F823F000BF6D2100088D22000893
:102140008D2200088D220008B52100088D2200088C
:102150008D2200088D220008FD2100088D22000834
:102160008D2200088D22000845220008FB685B6A6A
:10217000724ADA63FB685B6A714A1A64FB685B6ADD
:10218000704ADA64FB68586A7968FB681B68343304
:102190001A467B8812F01BF90346002B01D001235D
:1021A000C7E0FB681B68DA68FB681B6842F40072D2
:1021B000DA606EE0FB689B6A604ADA63FB689B6AE0
:1021C0005F4A1A64FB689B6A5E4ADA64FB68986A35
:1021D0007968FB681B6838331A467B8812F0F7F879
:1021E0000346002B01D00123A3E0FB681B68DA68DB
:1021F000FB681B6842F48062DA604AE0FB68DB6AD5
:102200004E4ADA63FB68DB6A4D4A1A64FB68DB6A94
:102210004C4ADA64FB68D86A7968FB681B683C330F
:102220001A467B8812F0D3F80346002B01D0012315
:102230007FE0FB681B68DA68FB681B6842F4006299
:10224000DA6026E0FB681B6B3C4ADA63FB681B6BB9
:102250003B4A1A64FB681B6B3A4ADA64FB68186BEA
:102260007968FB681B6840331A467B8812F0AFF828
:102270000346002B01D001235BE0FB681B68DA6892
:10228000FB681B6842F48052DA6002E00123FB75B0
:1022900000BFFB7D002B4BD1FB681B680122B96896
:1022A000184604F027F8FB681B68274A934207D1B9
:1022B000FB681B685A6CFB681B6842F400425A6456
:1022C000FB681B68204A934218D0FB681B68B3F177
:1022D000804F13D0FB681B681C4A93420ED0FB68EA
:1022E0001B681B4A934209D0FB681B68194A93423A
:1022F00004D0FB681B68184A934211D1FB681B6825
:102300009B6803F007033B613B69062B10D0FB6819
:102310001B681A68FB681B6842F001021A6007E03C
:10232000FB681B681A68FB681B6842F001021A60B0
:10233000FB7D18461837BD4680BD00BF75570008A5
:102340001D580008E356000800000140000400404A
:1023500000080040000C00400040014080B584B0FF
:1023600000AF786039600023FB733B680C2B55D8B5
:1023700001A252F823F000BFAD2300081D2400087D
:102380001D2400081D240008C92300081D2400087E
:102390001D2400081D240008E52300081D24000852
:1023A0001D2400081D240008012400087B681B6808
:1023B000DA687B681B6822F40072DA607B685B6A0B
:1023C000184612F0CCF82CE07B681B68DA687B6852
:1023D0001B6822F48062DA607B689B6A184612F000
:1023E000BEF81EE07B681B68DA687B681B6822F415
:1023F0000062DA607B68DB6A184612F0B0F810E021
:102400007B681B68DA687B681B6822F48052DA609C
:102410007B681B6B184612F0A2F802E00123FB73E5
:1024200000BFFB7B002B57D17B681B6800223968FB
:10243000184603F05FFF7B681B682A4A934217D156
:102440007B681B681A6A41F211131340002B0FD1ED
:102450007B681B681A6A40F244431340002B07D183
:102460007B681B685A6C7B681B6822F400425A64C4
:102470007B681B681A6A41F211131340002B0FD1BD
:102480007B681B681A6A40F244431340002B07D153
:102490007B681B681A687B681B6822F001021A605F
:1024A0003B68002B04D17B68012283F83E2013E0B7
:1024B0003B68042B04D17B68012283F83F200BE0AA
:1024C0003B68082B04D17B68012283F8402003E09D
:1024D0007B68012283F84120FB7B18461037BD46FC
:1024E00080BD00BF0000014080B582B000AF7860C1
:1024F0007B68002B01D1012341E07B6893F83D30DC
:10250000DBB2002B06D17B68002283F83C20786880
:1025100000F08DF87B68022283F83D207B681A6802
:102520007B6804331946104603F08EFA7B6801225B
:1025300083F846207B68012283F83E207B680122D5
:1025400083F83F207B68012283F840207B680122CA
:1025500083F841207B68012283F842207B680122B6
:1025600083F843207B68012283F844207B680122A2
:1025700083F845207B68012283F83D20002318461C
:102580000837BD4680BD80B582B000AF78607B68FB
:10259000022283F83D207B681B681A6A41F21113FE
:1025A0001340002B0FD17B681B681A6A40F244432A
:1025B0001340002B07D17B681B681A687B681B6877
:1025C00022F001021A60786800F03BF87B68002274
:1025D00083F846207B68002283F83E207B68002237
:1025E00083F83F207B68002283F840207B6800222C
:1025F00083F841207B68002283F842207B68002218
:1026000083F843207B68002283F844207B68002203
:1026100083F845207B68002283F83D207B680022F8
:1026200083F83C20002318460837BD4680BD80B49F
:1026300083B000AF786000BF0C37BD465DF8047B07
:10264000704780B483B000AF786000BF0C37BD46E0
:102650005DF8047B7047000080B584B000AF7860FF
:1026600039603B68002B04D17B6893F83E30DBB2C5
:1026700013E03B68042B04D17B6893F83F30DBB256
:102680000BE03B68082B04D17B6893F84030DBB249
:1026900003E07B6893F84130DBB2FB733B68002BAF
:1026A00004D17B6893F84230DBB213E03B68042B23
:1026B00004D17B6893F84330DBB20BE03B68082B16
:1026C00004D17B6893F84430DBB203E07B6893F875
:1026D0004530DBB2BB73FB7B012B02D1BB7B012BF3
:1026E00001D0012377E03B68002B04D17B680222F4
:1026F00083F83E2013E03B68042B04D17B68022260
:1027000083F83F200BE03B68082B04D17B68022252
:1027100083F8402003E07B68022283F841203B6875
:10272000002B04D17B68022283F8422013E03B682F
:10273000042B04D17B68022283F843200BE03B6822
:10274000082B04D17B68022283F8442003E07B68D5
:10275000022283F845207B681B68012239681846ED
:1027600003F0C8FD7B681B681D4A934218D07B6844
:102770001B68B3F1804F13D07B681B68194A9342E2
:102780000ED07B681B68184A934209D07B681B688F
:10279000164A934204D07B681B68154A934211D1B4
:1027A0007B681B689B6803F00703BB60BB68062B54
:1027B00010D07B681B681A687B681B6842F00102B6
:1027C0001A6007E07B681B681A687B681B6842F028
:1027D00001021A60002318461037BD4680BD00BFB5
:1027E000000001400004004000080040000C0040D0
:1027F0000040014080B582B000AF786039607B68EE
:102800001B6800223968184603F074FD7B681B685A
:102810001A6A41F211131340002B0FD17B681B6819
:102820001A6A40F244431340002B07D17B681B68AF
:102830001A687B681B6822F001021A603B68002B53
:1028400004D17B68012283F83E2013E03B68042B0F
:1028500004D17B68012283F83F200BE03B68082B02
:1028600004D17B68012283F8402003E07B680122C9
:1028700083F841203B68002B04D17B68012283F858
:10288000422013E03B68042B04D17B68012283F8CB
:1028900043200BE03B68082B04D17B68012283F8BE
:1028A000442003E07B68012283F84520002318467A
:1028B0000837BD4680BD000080B584B000AF7860A9
:1028C00039600023FB733B68002B04D17B6893F8CD
:1028D0003E30DBB213E03B68042B04D17B6893F8F5
:1028E0003F30DBB20BE03B68082B04D17B6893F8E8
:1028F0004030DBB203E07B6893F84130DBB2BB735E
:102900003B68002B04D17B6893F84230DBB213E0C4
:102910003B68042B04D17B6893F84330DBB20BE0B7
:102920003B68082B04D17B6893F84430DBB203E0AA
:102930007B6893F84530DBB27B73BB7B012B02D104
:102940007B7B012B01D00123C2E03B68002B04D12B
:102950007B68022283F83E2013E03B68042B04D1FD
:102960007B68022283F83F200BE03B68082B04D1F0
:102970007B68022283F8402003E07B68022283F810
:1029800041203B68002B04D17B68022283F842205F
:1029900013E03B68042B04D17B68022283F84320B8
:1029A0000BE03B68082B04D17B68022283F84420AB
:1029B00003E07B68022283F845203B680C2B41D85A
:1029C00001A252F823F000BFFD290008452A0008A3
:1029D000452A0008452A00080F2A0008452A000851
:1029E000452A0008452A0008212A0008452A00082F
:1029F000452A0008452A0008332A00087B681B681E
:102A0000DA687B681B6842F00202DA601DE07B68CE
:102A10001B68DA687B681B6842F00402DA6014E025
:102A20007B681B68DA687B681B6842F00802DA6022
:102A30000BE07B681B68DA687B681B6842F0100259
:102A4000DA6002E00123FB7300BFFB7B002B3ED169
:102A50007B681B6801223968184603F04BFC7B68D1
:102A60001B681D4A934218D07B681B68B3F1804FE6
:102A700013D07B681B68194A93420ED07B681B6891
:102A8000174A934209D07B681B68164A934204D0C8
:102A90007B681B68144A934211D17B681B689B6852
:102AA00003F00703BB60BB68062B10D07B681B6874
:102AB0001A687B681B6842F001021A6007E07B68B5
:102AC0001B681A687B681B6842F001021A60FB7B76
:102AD00018461037BD4680BD00000140000400408C
:102AE00000080040000C00400040014080B584B068
:102AF00000AF786039600023FB733B680C2B41D832
:102B000001A252F823F000BF3D2B0008852B0008DE
:102B1000852B0008852B00084F2B0008852B00080B
:102B2000852B0008852B0008612B0008852B0008E9
:102B3000852B0008852B0008732B00087B681B6819
:102B4000DA687B681B6822F00202DA601DE07B68AD
:102B50001B68DA687B681B6822F00402DA6014E004
:102B60007B681B68DA687B681B6822F00802DA6001
:102B70000BE07B681B68DA687B681B6822F0100238
:102B8000DA6002E00123FB7300BFFB7B002B56D110
:102B90007B681B6800223968184603F0ABFB7B6832
:102BA0001B681A6A41F211131340002B0FD17B6886
:102BB0001B681A6A40F244431340002B07D17B681C
:102BC0001B681A687B681B6822F001021A603B6868
:102BD000002B04D17B68012283F83E2013E03B6880
:102BE000042B04D17B68012283F83F200BE03B6873
:102BF000082B04D17B68012283F8402003E07B6826
:102C0000012283F841203B68002B04D17B6801221C
:102C100083F8422013E03B68042B04D17B68012237
:102C200083F843200BE03B68082B04D17B6801222A
:102C300083F8442003E07B68012283F84520FB7B76
:102C400018461037BD4680BD80B586B000AFF8602D
:102C5000B9607A607B800023FB75BB68002B04D1D0
:102C6000FB6893F83E30DBB213E0BB68042B04D161
:102C7000FB6893F83F30DBB20BE0BB68082B04D154
:102C8000FB6893F84030DBB203E0FB6893F8413017
:102C9000DBB2BB75BB68002B04D1FB6893F84230F4
:102CA000DBB213E0BB68042B04D1FB6893F843301C
:102CB000DBB20BE0BB68082B04D1FB6893F844300F
:102CC000DBB203E0FB6893F84530DBB27B75BB7D7C
:102CD000022B02D07B7D022B01D102233CE1BB7D84
:102CE000012B43D17B7D012B40D17B68002B04D18C
:102CF0007B88002B01D001232EE1BB68002B04D17F
:102D0000FB68022283F83E2013E0BB68042B04D149
:102D1000FB68022283F83F200BE0BB68082B04D13C
:102D2000FB68022283F8402003E0FB68022283F85C
:102D30004120BB68002B04D1FB68022283F84220AB
:102D400016E0BB68042B04D1FB68022283F8432001
:102D50000EE0BB68082B04D1FB68022283F84420F4
:102D600006E0FB68022283F8452001E00123F3E03E
:102D7000FB681B680122B968184603F0BBFABB6800
:102D80000C2B00F2AD8001A252F823F0C12D0008F7
:102D9000E12E0008E12E0008E12E0008092E0008AF
:102DA000E12E0008E12E0008E12E0008512E000857
:102DB000E12E0008E12E0008E12E0008992E0008FF
:102DC000FB685B6A664ADA63FB685B6A654A1A6499
:102DD000FB685B6A644ADA64FB68586AFB681B68D4
:102DE000343319467A687B8811F0F1FA0346002BD8
:102DF00001D00123B0E0FB681B68DA68FB681B6840
:102E000042F40072DA606EE0FB689B6A544ADA634F
:102E1000FB689B6A534A1A64FB689B6A524ADA64ED
:102E2000FB68986AFB681B68383319467A687B88A8
:102E300011F0CDFA0346002B01D001238CE0FB6892
:102E40001B68DA68FB681B6842F48062DA604AE05B
:102E5000FB68DB6A424ADA63FB68DB6A414A1A6450
:102E6000FB68DB6A404ADA64FB68D86AFB681B6867
:102E70003C3319467A687B8811F0A9FA0346002B87
:102E800001D0012368E0FB681B68DA68FB681B68F7
:102E900042F40062DA6026E0FB681B6B304ADA63BA
:102EA000FB681B6B2F4A1A64FB681B6B2E4ADA64A3
:102EB000FB68186BFB681B68403319467A687B888F
:102EC00011F085FA0346002B01D0012344E0FB6892
:102ED0001B68DA68FB681B6842F48052DA6002E023
:102EE0000123FB7500BFFB681B68204A934218D082
:102EF000FB681B68B3F1804F13D0FB681B681C4A4A
:102F000093420ED0FB681B681A4A934209D0FB68B3
:102F10001B68194A934204D0FB681B68174A934206
:102F200011D1FB681B689B6803F007033B613B6999
:102F3000062B10D0FB681B681A68FB681B6842F000
:102F400001021A6007E0FB681B681A68FB681B68CF
:102F500042F001021A60FB7D18461837BD4680BD5D
:102F6000855800084D590008E3560008000001404C
:102F70000004004000080040000C004000400140F8
:102F800080B584B000AF786039600023FB737B6844
:102F90001B6800223968184603F0ACF93B680C2B1B
:102FA00054D801A252F823F0DD2F00084D3000085C
:102FB0004D3000084D300008F92F00084D30000852
:102FC0004D3000084D300008153000084D30000825
:102FD0004D3000084D300008313000087B681B6818
:102FE000DA687B681B6822F40072DA607B685B6ACF
:102FF000184611F0B4FA2CE07B681B68DA687B682D
:103000001B6822F48062DA607B689B6A184611F0C4
:10301000A6FA1EE07B681B68DA687B681B6822F4EE
:103020000062DA607B68DB6A184611F098FA10E0FB
:103030007B681B68DA687B681B6822F48052DA6060
:103040007B681B6B184611F08AFA02E00123FB73C0
:1030500000BFFB7B002B4FD17B681B681A6A41F2D3
:1030600011131340002B0FD17B681B681A6A40F2C2
:1030700044431340002B07D17B681B681A687B68A8
:103080001B6822F001021A603B68002B04D17B68A8
:10309000012283F83E2013E03B68042B04D17B68B7
:1030A000012283F83F200BE03B68082B04D17B68AA
:1030B000012283F8402003E07B68012283F841204D
:1030C0003B68002B04D17B68012283F8422013E087
:1030D0003B68042B04D17B68012283F843200BE07A
:1030E0003B68082B04D17B68012283F8442003E06D
:1030F0007B68012283F84520FB7B18461037BD46CC
:1031000080BD00BF80B582B000AF786039607B6859
:10311000002B01D1012341E07B6893F83D30DBB205
:10312000002B06D17B68002283F83C20786800F0F1
:103130007DF87B68022283F83D207B681A687B68F3
:1031400004331946104602F07FFC7B681B681A683E
:103150007B681B6822F008021A607B681B6819688C
:103160007B681B683A680A431A607B68012283F80F
:1031700046207B68012283F83E207B68012283F889
:103180003F207B68012283F842207B68012283F87C
:1031900043207B68012283F83D200023184608372E
:1031A000BD4680BD80B582B000AF78607B680222EA
:1031B00083F83D207B681B681A6A41F211131340A3
:1031C000002B0FD17B681B681A6A40F244431340FE
:1031D000002B07D17B681B681A687B681B6822F08C
:1031E00001021A60786800F02BF87B68002283F8EF
:1031F00046207B68002283F83E207B68002283F80B
:103200003F207B68002283F842207B68002283F8FD
:1032100043207B68002283F83D207B68002283F8EE
:103220003C20002318460837BD4680BD80B483B0DB
:1032300000AF786000BF0C37BD465DF8047B704777
:1032400080B483B000AF786000BF0C37BD465DF836
:10325000047B704780B584B000AF786039607B68CC
:1032600093F83E30FB737B6893F83F30BB737B6809
:1032700093F842307B737B6893F843303B73FB7B5E
:10328000012B08D1BB7B012B05D17B7B012B02D10C
:103290003B7B012B01D001232BE07B68022283F8CA
:1032A0003E207B68022283F83F207B68022283F85D
:1032B00042207B68022283F843207B681B6801223E
:1032C0000021184603F016F87B681B6801220421D0
:1032D000184603F00FF87B681B68084A934207D131
:1032E0007B681B685A6C7B681B6842F400425A6416
:1032F000002318461037BD4680BD00BF00000140C6
:1033000080B582B000AF786039607B681B680022AE
:103310000021184602F0EEFF7B681B6800220421A2
:10332000184602F0E7FF7B681B68244A934217D1D6
:103330007B681B681A6A41F211131340002B0FD1EE
:103340007B681B681A6A40F244431340002B07D184
:103350007B681B685A6C7B681B6822F400425A64C5
:103360007B681B681A6A41F211131340002B0FD1BE
:103370007B681B681A6A40F244431340002B07D154
:103380007B681B681A687B681B6822F001021A6060
:103390007B68012283F83E207B68012283F83F206E
:1033A0007B68012283F842207B68012283F8432056
:1033B000002318460837BD4680BD00BF000001400D
:1033C00080B584B000AF786039607B6893F83E3098
:1033D000FB737B6893F83F30BB737B6893F8423094
:1033E0007B737B6893F843303B73FB7B012B08D1E5
:1033F000BB7B012B05D17B7B012B02D13B7B012BBE
:1034000001D001233BE07B68022283F83E207B68E9
:10341000022283F83F207B68022283F842207B68E7
:10342000022283F843207B681B68DA687B681B688C
:1034300042F00202DA607B681B68DA687B681B680E
:1034400042F00402DA607B681B6801220021184602
:1034500002F050FF7B681B6801220421184602F02D
:1034600049FF7B681B68084A934207D17B681B6849
:103470005A6C7B681B6842F400425A640023184669
:103480001037BD4680BD00BF0000014080B582B04E
:1034900000AF786039607B681B68DA687B681B68FE
:1034A00022F00202DA607B681B68DA687B681B68BE
:1034B00022F00402DA607B681B68002200211846B3
:1034C00002F018FF7B681B6800220421184602F0F6
:1034D00011FF7B681B68244A934217D17B681B68E5
:1034E0001A6A41F211131340002B0FD17B681B683D
:1034F0001A6A40F244431340002B07D17B681B68D3
:103500005A6C7B681B6822F400425A647B681B6813
:103510001A6A41F211131340002B0FD17B681B680C
:103520001A6A40F244431340002B07D17B681B68A2
:103530001A687B681B6822F001021A607B6801220E
:1035400083F83E207B68012283F83F207B680122BC
:1035500083F842207B68012283F843200023184629
:103560000837BD4680BD00BF0000014080B586B071
:1035700000AF786039607B68002B01D1012397E0B0
:103580007B6893F83D30DBB2002B06D17B680022CC
:1035900083F83C20786800F0D3F87B68022283F837
:1035A0003D207B681B689B687A68126823F480431F
:1035B00023F0070393607B681A687B68043319461D
:1035C000104602F041FA7B681B689B687B617B6850
:1035D0001B689B693B617B681B681B6AFB603B68DF
:1035E0001B687A6913437B613B6923F4407323F0C2
:1035F00003033B613B689A683B689B691B0213436A
:103600003A6913433B613B6923F4406323F00C03A5
:103610003B613B6923F4704323F0F0033B613B685B
:10362000DA683B68DB691B0213433A6913433B6169
:103630003B681B691A013B681B6A1B0313433A6909
:1036400013433B61FB6823F02203FB60FB6823F01C
:103650008803FB603B685A683B685B691B01134346
:10366000FA681343FB607B681B687A699A607B6821
:103670001B683A699A617B681B68FA681A627B6802
:10368000012283F846207B68012283F83E207B6874
:10369000012283F83F207B68012283F842207B6867
:1036A000012283F843207B68012283F83D20002318
:1036B00018461837BD4680BD80B582B000AF78602F
:1036C0007B68022283F83D207B681B681A6A41F2FE
:1036D00011131340002B0FD17B681B681A6A40F24C
:1036E00044431340002B07D17B681B681A687B6832
:1036F0001B6822F001021A60786800F02BF87B68E2
:10370000002283F846207B68002283F83E207B68F5
:10371000002283F83F207B68002283F842207B68E8
:10372000002283F843207B68002283F83D207B68D9
:10373000002283F83C20002318460837BD4680BD90
:1037400080B483B000AF786000BF0C37BD465DF831
:10375000047B704780B483B000AF786000BF0C3743
:10376000BD465DF8047B704780B584B000AF7860DB
:1037700039607B6893F83E30FB737B6893F83F3089
:10378000BB737B6893F842307B737B6893F843305C
:103790003B733B68002B10D1FB7B012B02D17B7B61
:1037A000012B01D0012369E07B68022283F83E20CF
:1037B0007B68022283F8422031E03B68042B10D161
:1037C000BB7B012B02D13B7B012B01D0012355E0B8
:1037D0007B68022283F83F207B68022283F8432023
:1037E0001DE0FB7B012B08D1BB7B012B05D17B7B33
:1037F000012B02D13B7B012B01D001233EE07B68F2
:10380000022283F83E207B68022283F83F207B68F7
:10381000022283F842207B68022283F843203B681F
:10382000002B03D03B68042B08D00FE07B681B689B
:1038300001220021184602F05DFD16E07B681B683E
:1038400001220421184602F055FD0EE07B681B683A
:1038500001220021184602F04DFD7B681B68012201
:103860000421184602F046FD00BF7B681B681A68F9
:103870007B681B6842F001021A600023184610376B
:10388000BD4680BD80B582B000AF786039603B68CE
:10389000002B03D03B68042B08D00FE07B681B682B
:1038A00000220021184602F025FD16E07B681B6807
:1038B00000220421184602F01DFD0EE07B681B6803
:1038C00000220021184602F015FD7B681B680022CB
:1038D0000421184602F00EFD00BF7B681B681A6ABF
:1038E00041F211131340002B0FD17B681B681A6A39
:1038F00040F244431340002B07D17B681B681A68D1
:103900007B681B6822F001021A603B68002B02D022
:103910003B68042B38D13B68002B04D17B68012223
:1039200083F83E2013E03B68042B04D17B6801221E
:1039300083F83F200BE03B68082B04D17B68012211
:1039400083F8402003E07B68012283F841203B6834
:10395000002B04D17B68012283F8422024E03B68DD
:10396000042B04D17B68012283F843201CE03B68D0
:10397000082B04D17B68012283F8442014E07B6883
:10398000012283F845200FE07B68012283F83E2066
:103990007B68012283F83F207B68012283F8422064
:1039A0007B68012283F84320002318460837BD4670
:1039B00080BD80B584B000AF786039607B6893F8D3
:1039C0003E30FB737B6893F83F30BB737B6893F8A2
:1039D00042307B737B6893F843303B733B68002B2A
:1039E00010D1FB7B012B02D17B7B012B01D001236A
:1039F00089E07B68022283F83E207B68022283F8FC
:103A0000422031E03B68042B10D1BB7B012B02D15B
:103A10003B7B012B01D0012375E07B68022283F8F8
:103A20003F207B68022283F843201DE0FB7B012BB3
:103A300008D1BB7B012B05D17B7B012B02D13B7BCA
:103A4000012B01D001235EE07B68022283F83E2037
:103A50007B68022283F83F207B68022283F84220A1
:103A60007B68022283F843203B68002B03D03B682D
:103A7000042B10D01FE07B681B6801220021184630
:103A800002F038FC7B681B68DA687B681B6842F0D0
:103A90000202DA602EE07B681B68012204211846CE
:103AA00002F028FC7B681B68DA687B681B6842F0C0
:103AB0000402DA601EE07B681B68012200211846C0
:103AC00002F018FC7B681B6801220421184602F0F2
:103AD00011FC7B681B68DA687B681B6842F0020295
:103AE000DA607B681B68DA687B681B6842F0040256
:103AF000DA6000BF7B681B681A687B681B6842F04D
:103B000001021A60002318461037BD4680BD80B5FB
:103B100082B000AF786039603B68002B0FD17B68C2
:103B20001B6800220021184602F0E4FB7B681B683A
:103B3000DA687B681B6822F00202DA6030E03B68DA
:103B4000042B0FD17B681B6800220421184602F069
:103B5000D1FB7B681B68DA687B681B6822F0040273
:103B6000DA601DE07B681B6800220021184602F025
:103B7000C1FB7B681B6800220421184602F0BAFBD7
:103B80007B681B68DA687B681B6822F00202DA60D7
:103B90007B681B68DA687B681B6822F00402DA60C5
:103BA0007B681B681A6A41F211131340002B0FD176
:103BB0007B681B681A6A40F244431340002B07D10C
:103BC0007B681B681A687B681B6822F001021A6018
:103BD0003B68002B02D03B68042B38D13B68002B9C
:103BE00004D17B68012283F83E2013E03B68042B5C
:103BF00004D17B68012283F83F200BE03B68082B4F
:103C000004D17B68012283F8402003E07B68012215
:103C100083F841203B68002B04D17B68012283F8A4
:103C2000422024E03B68042B04D17B68012283F806
:103C300043201CE03B68082B04D17B68012283F8F9
:103C4000442014E07B68012283F845200FE07B6864
:103C5000012283F83E207B68012283F83F207B68A5
:103C6000012283F842207B68012283F8432000234D
:103C700018460837BD4680BD80B586B000AFF860F5
:103C8000B9607A603B60FB6893F83E30FB75FB6877
:103C900093F83F30BB75FB6893F842307B75FB6847
:103CA00093F843303B75BB68002B20D1FB7D022B82
:103CB00002D07B7D022B01D102233FE1FB7D012B52
:103CC00013D17B7D012B10D17B68002B04D13B8C61
:103CD000002B01D0012331E1FB68022283F83E2052
:103CE000FB68022283F842205DE0012326E1BB68E5
:103CF000042B20D1BB7D022B02D03B7D022B01D1B6
:103D000002231BE1BB7D012B13D13B7D012B10D185
:103D10003B68002B04D13B8C002B01D001230DE12B
:103D2000FB68022283F83F20FB68022283F84320CD
:103D300039E0012302E1FB7D022B08D0BB7D022B81
:103D400005D07B7D022B02D03B7D022B01D10223CB
:103D5000F4E0FB7D012B24D1BB7D012B21D17B7DA8
:103D6000012B1ED13B7D012B1BD17B68002B02D088
:103D70003B68002B04D13B8C002B01D00123DDE0FC
:103D8000FB68022283F83E20FB68022283F83F2072
:103D9000FB68022283F84220FB68022283F843205A
:103DA00001E00123CAE0BB68002B03D0BB68042BF1
:103DB00033D065E0FB685B6A624ADA63FB685B6A82
:103DC000614A1A64FB685B6A604ADA64FB68586A95
:103DD000FB681B68343319467A683B8C10F0F7FA9D
:103DE0000346002B01D00123A8E0FB681B68DA68BA
:103DF000FB681B6842F40072DA60FB681B680122F2
:103E00000021184602F076FAFB681B681A68FB6806
:103E10001B6842F001021A608FE0FB689B6A494A06
:103E2000DA63FB689B6A484A1A64FB689B6A474AE4
:103E3000DA64FB68986AFB681B68383319463A688D
:103E40003B8C10F0C4FA0346002B01D0012375E02F
:103E5000FB681B68DA68FB681B6842F48062DA6002
:103E6000FB681B6801220421184602F043FAFB6834
:103E70001B681A68FB681B6842F001021A605CE06C
:103E8000FB685B6A2F4ADA63FB685B6A2E4A1A6436
:103E9000FB685B6A2D4ADA64FB68586AFB681B683A
:103EA000343319467A683B8C10F091FA0346002BA4
:103EB00001D0012342E0FB689B6A224ADA63FB6877
:103EC0009B6A214A1A64FB689B6A204ADA64FB6891
:103ED000986AFB681B68383319463A683B8C10F0C7
:103EE00076FA0346002B01D0012327E0FB681B680C
:103EF000DA68FB681B6842F40072DA60FB681B68D2
:103F0000DA68FB681B6842F48062DA60FB681B6851
:103F100001220021184602F0EDF9FB681B6801221E
:103F20000421184602F0E6F9FB681B681A68FB6872
:103F30001B6842F001021A6000BF002318461837C0
:103F4000BD4680BD855800084D590008E35600085D
:103F500080B582B000AF786039603B68002B14D127
:103F60007B681B6800220021184602F0C3F97B68B9
:103F70001B68DA687B681B6822F40072DA607B6871
:103F80005B6A184610F0EBFA3FE03B68042B14D153
:103F90007B681B6800220421184602F0ABF97B689D
:103FA0001B68DA687B681B6822F48062DA607B68D1
:103FB0009B6A184610F0D3FA27E07B681B68002242
:103FC0000021184602F096F97B681B680022042144
:103FD000184602F08FF97B681B68DA687B681B68FB
:103FE00022F40072DA607B681B68DA687B681B6801
:103FF00022F48062DA607B685B6A184610F0AFFAE0
:104000007B689B6A184610F0AAFA7B681B681A6ADC
:1040100041F211131340002B0FD17B681B681A6A01
:1040200040F244431340002B07D17B681B681A6899
:104030007B681B6822F001021A603B68002B02D0EB
:104040003B68042B38D13B68002B04D17B680122EC
:1040500083F83E2013E03B68042B04D17B680122E7
:1040600083F83F200BE03B68082B04D17B680122DA
:1040700083F8402003E07B68012283F841203B68FD
:10408000002B04D17B68012283F8422024E03B68A6
:10409000042B04D17B68012283F843201CE03B6899
:1040A000082B04D17B68012283F8442014E07B684C
:1040B000012283F845200FE07B68012283F83E202F
:1040C0007B68012283F83F207B68012283F842202D
:1040D0007B68012283F84320002318460837BD4639
:1040E00080BD80B582B000AF78607B681B681B69BB
:1040F00003F00203022B22D17B681B68DB6803F00C
:104100000203022B1BD17B681B686FF002021A614D
:104110007B6801221A777B681B689B6903F00303A5
:10412000002B03D0786801F0FFF905E0786801F012
:10413000F1F9786801F00CFA7B6800221A777B6845
:104140001B681B6903F00403042B22D17B681B68E6
:10415000DB6803F00403042B1BD17B681B686FF042
:1041600004021A617B6802221A777B681B689B69CC
:1041700003F44073002B03D0786801F0D5F905E013
:10418000786801F0C7F9786801F0E2F97B680022ED
:104190001A777B681B681B6903F00803082B22D180
:1041A0007B681B68DB6803F00803082B1BD17B6866
:1041B0001B686FF008021A617B6804221A777B681B
:1041C0001B68DB6903F00303002B03D0786801F060
:1041D000ABF905E0786801F09DF9786801F0B8F96D
:1041E0007B6800221A777B681B681B6903F0100349
:1041F000102B22D17B681B68DB6803F01003102BA7
:104200001BD17B681B686FF010021A617B68082263
:104210001A777B681B68DB6903F44073002B03D0BB
:10422000786801F081F905E0786801F073F9786841
:1042300001F08EF97B6800221A777B681B681B6986
:1042400003F00103012B0ED17B681B68DB6803F0D0
:104250000103012B07D17B681B686FF001021A6113
:10426000786801F043F97B681B681B6903F08003E1
:10427000802B0ED17B681B68DB6803F08003802BEA
:1042800007D17B681B686FF080021A61786804F0C0
:10429000A2F87B681B681B6903F04003402B0ED11A
:1042A0007B681B68DB6803F04003402B07D17B6809
:1042B0001B686FF040021A61786801F05DF97B6855
:1042C0001B681B6903F02003202B0ED17B681B6841
:1042D000DB6803F02003202B07D17B681B686FF09D
:1042E00020021A61786804F062F800BF0837BD4602
:1042F00080BD000080B586B000AFF860B9607A601C
:104300000023FB75FB6893F83C30012B01D102239D
:1043100048E0FB68012283F83C207B680C2B39D8ED
:1043200001A252F823F000BF5D4300089543000846
:1043300095430008954300086B4300089543000827
:104340009543000895430008794300089543000809
:10435000954300089543000887430008FB681B68E5
:10436000B968184601F0F0FB17E0FB681B68B968F4
:10437000184601F04FFC10E0FB681B68B96818464E
:1043800001F0B4FC09E0FB681B68B968184601F04D
:1043900017FD02E00123FB7500BFFB68002283F8D4
:1043A0003C20FB7D18461837BD4680BD80B586B0E1
:1043B00000AFF860B9607A600023FB75FB6893F882
:1043C0003C30012B01D1022388E0FB68012283F8F5
:1043D0003C207B68002B1BD1FB681868BB68196800
:1043E000BB685A68BB68DB6801F0CCFDFB681B68E2
:1043F0009A69FB681B6822F00C029A61FB681B68D3
:104400009969BB689A68FB681B680A439A6160E017
:104410007B68042B1CD1FB681868BB681968BB68F3
:104420005A68BB68DB6801F044FEFB681B689A6948
:10443000FB681B6822F440629A61FB681B689969FB
:10444000BB689B681A02FB681B680A439A6140E0DC
:104450007B68082B1BD1FB681868BB681968BB68B0
:104460005A68BB68DB6801F091FEFB681B68DA697B
:10447000FB681B6822F00C02DA61FB681B68D969D3
:10448000BB689A68FB681B680A43DA6121E07B68B5
:104490000C2B1CD1FB681868BB681968BB685A688C
:1044A000BB68DB6801F0AEFEFB681B68DA69FB687D
:1044B0001B6822F44062DA61FB681B68D969BB683B
:1044C0009B681A02FB681B680A43DA6101E001235A
:1044D000FB75FB68002283F83C20FB7D18461837EB
:1044E000BD4680BD80B586B000AFF860B9607A6027
:1044F0000023FB75FB6893F83C30012B01D10223AC
:10450000AEE0FB68012283F83C207B680C2B00F2B4
:104510009F8001A252F823F04D4500085146000843
:1045200051460008514600088D45000851460008D4
:104530005146000851460008CF4500085146000882
:1045400051460008514600080F460008FB681B68EA
:10455000B968184601F0F8FAFB681B689A69FB68AD
:104560001B6842F008029A61FB681B689A69FB6845
:104570001B6822F004029A61FB681B689969BB689A
:104580001A69FB681B680A439A6164E0FB681B6850
:10459000B968184601F03EFBFB681B689A69FB6826
:1045A0001B6842F400629A61FB681B689A69FB68A9
:1045B0001B6822F480629A61FB681B689969BB687A
:1045C0001B691A02FB681B680A439A6143E0FB6897
:1045D0001B68B968184601F089FBFB681B68DA693B
:1045E000FB681B6842F00802DA61FB681B68DA6945
:1045F000FB681B6822F00402DA61FB681B68D9695A
:10460000BB681A69FB681B680A43DA6123E0FB6830
:104610001B68B968184601F0D3FBFB681B68DA69B0
:10462000FB681B6842F40062DA61FB681B68DA69A8
:10463000FB681B6822F48062DA61FB681B68D96939
:10464000BB681B691A02FB681B680A43DA6102E057
:104650000123FB7500BFFB68002283F83C20FB7D33
:1046600018461837BD4680BD80B58CB000AFF860E5
:10467000B9607A603B60002387F82F307A683B6826
:104680009A4200F0BE80FB6893F83C30012B01D1C8
:104690000223B7E0FB68012283F83C20FB6802227A
:1046A00083F83D20BB681B683B61BB685B687B612E
:1046B000BB689B68BB61BB68DB68FB61BB681B694F
:1046C0007B62BB685B69BB627B68002B03D07B6845
:1046D000042B09D011E0FB681B6807F1100211469A
:1046E000184601F031FA0CE0FB681B6807F1100274
:1046F0001146184601F08EFA03E0012387F82F30A7
:1047000000BF97F82F30002B70D13B68002B03D0EF
:104710003B68042B33D065E0FB681868BB68996977
:10472000BB68DA69BB681B6A01F02CFCFB681B687C
:104730009A69FB681B6822F00C029A61FB681B688F
:104740009A68FB681B6822F070029A60FB681B681D
:104750009A68FB681B6842F050029A60FB681B680D
:104760009A68FB681B6822F007029A60FB681B6866
:104770009A68FB681B6842F006029A6036E0FB68A4
:104780001868BB689969BB68DA69BB681B6A01F085
:1047900090FCFB681B689A69FB681B6822F4406206
:1047A0009A61FB681B689A68FB681B6822F07002BC
:1047B0009A60FB681B689A68FB681B6842F060029D
:1047C0009A60FB681B689A68FB681B6822F0070206
:1047D0009A60FB681B689A68FB681B6842F00602D7
:1047E0009A6003E0012387F82F3000BFFB680122A5
:1047F00083F83D20FB68002283F83C2097F82F3097
:1048000000E0012318463037BD4680BD80B588B032
:1048100002AFF860B9607A603B603B6A1B0A013303
:1048200001933B6A00933B687A68B968F86800F0C6
:1048300007F80346FB75FB7D18461837BD4680BD5B
:1048400080B586B000AFF860B9607A603B60002345
:10485000FB75FB6893F84630DBB2022B01D10223D3
:104860002BE1FB6893F84630DBB2012B0BD13B68A0
:10487000002B04D13B6A002B01D001231DE1FB6812
:10488000022283F846207B68B3F5804F00F0D88081
:104890007B68B3F5804F00F2EE807B68B3F5005F74
:1048A00000F0B3807B68B3F5005F00F2E4807B68C2
:1048B000B3F5805F00F08E807B68B3F5805F00F217
:1048C000DA807B68B3F5006F69D07B68B3F5006F61
:1048D00000F2D1807B68B3F5806F45D07B68B3F57B
:1048E000806F00F2C8807B68B3F5807F04D07B685E
:1048F000B3F5007F1CD0BEE0FB681B6A714ADA6327
:10490000FB681B6A704A1A64FB681B6A6F4ADA64A8
:10491000FB68186A3968FB681B684C331A467B6A67
:104920000FF055FD0346002B00F0A8800123C4E0E2
:10493000FB685B6A664ADA63FB685B6A654A1A640D
:10494000FB685B6A614ADA64FB68586A3968FB682D
:104950001B684C331A467B6A0FF039FD0346002B67
:1049600000F08E800123A8E0FB689B6A584ADA6356
:10497000FB689B6A574A1A64FB689B6A534ADA646D
:10498000FB68986A3968FB681B684C331A467B6A77
:104990000FF01DFD0346002B74D001238DE0FB6852
:1049A000DB6A4B4ADA63FB68DB6A4A4A1A64FB68D3
:1049B000DB6A464ADA64FB68D86A3968FB681B68B8
:1049C0004C331A467B6A0FF002FD0346002B5BD086
:1049D000012372E0FB681B6B3D4ADA63FB681B6BCB
:1049E0003C4A1A64FB681B6B384ADA64FB68186B34
:1049F0003968FB681B684C331A467B6A0FF0E7FC8A
:104A00000346002B42D0012357E0FB685B6B324A20
:104A1000DA63FB685B6B314A1A64FB685B6B2B4A99
:104A2000DA64FB68586B3968FB681B684C331A46BC
:104A30007B6A0FF0CCFC0346002B29D001233CE01D
:104A4000FB689B6B264ADA63FB689B6B254A1A64FA
:104A5000FB689B6B1D4ADA64FB68986B3968FB68DE
:104A60001B684C331A467B6A0FF0B1FC0346002BDF
:104A700010D0012321E00123FB750CE000BF0AE008
:104A800000BF08E000BF06E000BF04E000BF02E096
:104A900000BF00E000BFFB7D002B0DD1FB681B6851
:104AA000B9683A6A0A439A64FB681B68D968FB686C
:104AB0001B687A680A43DA60FB7D18461837BD46E2
:104AC00080BD00BFB5590008E3590008E35600084F
:104AD000755700081D580008598400087D84000897
:104AE000FF5900082D5A000880B584B000AF7860E7
:104AF00039600023FB733B68B3F5804F50D03B68AF
:104B0000B3F5804F52D83B68B3F5005F42D03B68A5
:104B1000B3F5005F4AD83B68B3F5805F34D03B689B
:104B2000B3F5805F42D83B68B3F5006F26D03B6891
:104B3000B3F5006F3AD83B68B3F5806F18D03B6887
:104B4000B3F5806F32D83B68B3F5807F04D03B6803
:104B5000B3F5007F06D029E07B681B6A18460FF08A
:104B6000FEFC26E07B685B6A18460FF0F8FC20E04C
:104B70007B689B6A18460FF0F2FC1AE07B68DB6AE0
:104B800018460FF0ECFC14E07B681B6B18460FF026
:104B9000E6FC0EE07B685B6B18460FF0E0FC08E07B
:104BA0007B689B6B18460FF0DAFC02E00123FB7375
:104BB00000BFFB7B002B0CD17B681B68D9683B686E
:104BC000DA437B681B680A40DA607B68012283F85D
:104BD0004620FB7B18461037BD4680BD80B588B0A7
:104BE00002AFF860B9607A603B603B6A1B0A013330
:104BF00001933B6A00933B687A68B968F86800F0F3
:104C000007F80346FB75FB7D18461837BD4680BD87
:104C100080B586B000AFF860B9607A603B60002371
:104C2000FB75FB6893F84630DBB2022B01D10223FF
:104C30002BE1FB6893F84630DBB2012B0BD13B68CC
:104C4000002B04D13B6A002B01D001231DE1FB683E
:104C5000022283F846207B68B3F5804F00F0D880AD
:104C60007B68B3F5804F00F2EE807B68B3F5005FA0
:104C700000F0B3807B68B3F5005F00F2E4807B68EE
:104C8000B3F5805F00F08E807B68B3F5805F00F243
:104C9000DA807B68B3F5006F69D07B68B3F5006F8D
:104CA00000F2D1807B68B3F5806F45D07B68B3F5A7
:104CB000806F00F2C8807B68B3F5807F04D07B688A
:104CC000B3F5007F1CD0BEE0FB681B6A714ADA6353
:104CD000FB681B6A704A1A64FB681B6A6F4ADA64D5
:104CE000FB68186AFB681B684C3319463A687B6A94
:104CF0000FF06DFB0346002B00F0A8800123C4E0F9
:104D0000FB685B6A664ADA63FB685B6A654A1A6439
:104D1000FB685B6A614ADA64FB68586AFB681B6877
:104D20004C3319463A687B6A0FF051FB0346002B5F
:104D300000F08E800123A8E0FB689B6A584ADA6382
:104D4000FB689B6A574A1A64FB689B6A534ADA6499
:104D5000FB68986AFB681B684C3319463A687B6AA3
:104D60000FF035FB0346002B74D001238DE0FB6868
:104D7000DB6A4B4ADA63FB68DB6A4A4A1A64FB68FF
:104D8000DB6A464ADA64FB68D86AFB681B684C3306
:104D900019463A687B6A0FF01AFB0346002B5BD07A
:104DA000012372E0FB681B6B3D4ADA63FB681B6BF7
:104DB0003C4A1A64FB681B6B384ADA64FB68186B60
:104DC000FB681B684C3319463A687B6A0FF0FFFAA0
:104DD0000346002B42D0012357E0FB685B6B324A4D
:104DE000DA63FB685B6B314A1A64FB685B6B2B4AC6
:104DF000DA64FB68586BFB681B684C3319463A68E9
:104E00007B6A0FF0E4FA0346002B29D001233CE033
:104E1000FB689B6B264ADA63FB689B6B254A1A6426
:104E2000FB689B6B1D4ADA64FB68986BFB681B6828
:104E30004C3319463A687B6A0FF0C9FA0346002BD7
:104E400010D0012321E00123FB750CE000BF0AE034
:104E500000BF08E000BF06E000BF04E000BF02E0C2
:104E600000BF00E000BFFB7D002B0DD1FB681B687D
:104E7000B9683A6A0A439A64FB681B68D968FB6898
:104E80001B687A680A43DA60FB7D18461837BD460E
:104E900080BD00BFB5590008E3590008E35600087B
:104EA000855800084D590008598400087D84000881
:104EB000FF5900082D5A000880B584B000AF786013
:104EC00039600023FB733B68B3F5804F50D03B68DB
:104ED000B3F5804F52D83B68B3F5005F42D03B68D2
:104EE000B3F5005F4AD83B68B3F5805F34D03B68C8
:104EF000B3F5805F42D83B68B3F5006F26D03B68BE
:104F0000B3F5006F3AD83B68B3F5806F18D03B68B3
:104F1000B3F5806F32D83B68B3F5807F04D03B682F
:104F2000B3F5007F06D029E07B681B6A18460FF0B6
:104F300016FB26E07B685B6A18460FF010FB20E04A
:104F40007B689B6A18460FF00AFB1AE07B68DB6AF5
:104F500018460FF004FB14E07B681B6B18460FF03B
:104F6000FEFA0EE07B685B6B18460FF0F8FA08E07B
:104F70007B689B6B18460FF0F2FA02E00123FB738B
:104F800000BFFB7B002B0CD17B681B68D9683B689A
:104F9000DA437B681B680A40DA607B68012283F889
:104FA0004620FB7B18461037BD4680BD80B483B0D9
:104FB00000AF786039607B6893F83C30012B01D1F9
:104FC000022314E07B68012283F83C207B680222E4
:104FD00083F83D207B681B683A685A617B68012230
:104FE00083F83D207B68002283F83C20002318468C
:104FF0000C37BD465DF8047B7047000080B586B075
:1050000000AFF860B9607A600023FB75FB6893F825
:105010003C30012B01D10223B8E0FB68012283F868
:105020003C20FB68022283F83D20BB685B68002BB4
:1050300002D0012B09D021E0FB681B689A68FB684D
:105040001B6822F47F429A601BE0BB68DB68002B80
:1050500009D0FB68012283F83D20FB68002283F819
:105060003C20012392E0FB681868BB68D968BB68E4
:105070009A68BB681B6901F01DF902E00123FB750A
:1050800000BFFB7D002B78D17B680C2B74D801A26C
:1050900052F823F0C95000087951000879510008EE
:1050A00079510008F550000879510008795100083D
:1050B0007951000821510008795100087951000800
:1050C000795100084D510008BB681B68002B08D0BF
:1050D000FB681B689A69FB681B6842F080029A6152
:1050E0004BE0FB681B689A69FB681B6822F0800232
:1050F0009A6142E0BB681B68002B08D0FB681B6804
:105100009A69FB681B6842F400429A6135E0FB68CB
:105110001B689A69FB681B6822F400429A612CE0C4
:10512000BB681B68002B08D0FB681B68DA69FB684A
:105130001B6842F08002DA611FE0FB681B68DA69D5
:10514000FB681B6822F08002DA6116E0BB681B680E
:10515000002B08D0FB681B68DA69FB681B6842F407
:105160000042DA6109E0FB681B68DA69FB681B68CA
:1051700022F40042DA6100E000BFFB68012283F8FC
:105180003D20FB68002283F83C20FB7D1846183741
:10519000BD4680BD80B584B000AF78603960002323
:1051A000FB737B6893F83C30012B01D10223B4E000
:1051B0007B68012283F83C207B68022283F83D2033
:1051C0007B681B689B68BB60BB6823F07703BB6090
:1051D000BB6823F47F43BB607B681B68BA689A6036
:1051E0003B681B68B3F5005F3ED0B3F5005F00F28B
:1051F0008780B3F5805F00F08680B3F5805F7FD84D
:10520000702B1AD0702B7BD8602B50D0602B77D8A6
:10521000502B3CD0502B73D8402B58D0402B6FD8FC
:10522000302B64D0302B6BD8202B60D0202B67D84C
:10523000002B5CD0102B5AD062E07B6818683B686A
:1052400099683B685A683B68DB6801F033F87B6813
:105250001B689B68BB60BB6843F07703BB607B68DF
:105260001B68BA689A604FE07B6818683B68996869
:105270003B685A683B68DB6801F01CF87B681B6878
:105280009A687B681B6842F480429A603CE07B68C5
:1052900018683B6859683B68DB681A4600F0DAFE1C
:1052A0007B681B685021184600F0E9FF2CE07B6802
:1052B00018683B6859683B68DB681A4600F036FF9F
:1052C0007B681B686021184600F0D9FF1CE07B68F2
:1052D00018683B6859683B68DB681A4600F0BAFEFC
:1052E0007B681B684021184600F0C9FF0CE07B6812
:1052F0001A683B681B681946104600F0C0FF03E0BF
:105300000123FB7300E000BF7B68012283F83D208E
:105310007B68002283F83C20FB7B18461037BD4693
:1053200080BD80B485B000AF786039607B681B6851
:105330005B68FB60FB6823F08003FB60FA683B68F6
:105340001343FB607B681B68FA685A6000231846A9
:105350001437BD465DF8047B704780B582B000AF5E
:10536000786039607B6893F83C30012B01D10223CF
:1053700031E07B68012283F83C207B68022283F8BD
:105380003D203968786800F06BFD0346002B09D09A
:105390007B68012283F83D207B68002283F83C2053
:1053A000012318E07B681B68DA687B681B6822F0C1
:1053B0004002DA607B681B68DA687B681B6822F44D
:1053C0008042DA607B68012283F83D207B680022FE
:1053D00083F83C20002318460837BD4680BD80B5C1
:1053E00082B000AF786039607B6893F83C30012B65
:1053F00001D1022331E07B68012283F83C207B68E5
:10540000022283F83D203968786800F029FD0346C0
:10541000002B09D07B68012283F83D207B680022A5
:1054200083F83C20012318E07B681B68DA687B68FE
:105430001B6842F04002DA607B681B68DA687B68B0
:105440001B6822F48042DA607B68012283F83D20E9
:105450007B68002283F83C20002318460837BD46AD
:1054600080BD000080B485B000AF78603960002353
:10547000FB603B680C2B31D801A252F823F000BF2F
:10548000B5540008DD540008DD540008DD54000860
:10549000BF540008DD540008DD540008DD54000846
:1054A000C9540008DD540008DD540008DD5400082C
:1054B000D35400087B681B685B6BFB600FE07B6864
:1054C0001B689B6BFB600AE07B681B68DB6BFB6007
:1054D00005E07B681B681B6CFB6000E000BFFB689D
:1054E00018461437BD465DF8047B704780B483B01E
:1054F00000AF786000BF0C37BD465DF8047B704795
:1055000080B483B000AF786000BF0C37BD465DF853
:10551000047B704780B483B000AF786000BF0C3765
:10552000BD465DF8047B704780B483B000AF7860FF
:1055300000BF0C37BD465DF8047B704780B483B074
:1055400000AF786000BF0C37BD465DF8047B704744
:1055500080B483B000AF786000BF0C37BD465DF803
:10556000047B704780B483B000AF786000BF0C3715
:10557000BD465DF8047B704780B483B000AF7860AF
:1055800000BF0C37BD465DF8047B704780B483B024
:1055900000AF786000BF0C37BD465DF8047B7047F4
:1055A00080B483B000AF786000BF0C37BD465DF8B3
:1055B000047B704780B483B000AF78607B6893F859
:1055C0003D30DBB218460C37BD465DF8047B7047B2
:1055D00080B483B000AF78607B6893F83D30DBB275
:1055E00018460C37BD465DF8047B704780B483B025
:1055F00000AF78607B6893F83D30DBB218460C371B
:10560000BD465DF8047B704780B483B000AF78601E
:105610007B6893F83D30DBB218460C37BD465DF829
:10562000047B704780B483B000AF78607B6893F8E8
:105630003D30DBB218460C37BD465DF8047B704741
:1056400080B483B000AF78607B6893F83D30DBB204
:1056500018460C37BD465DF8047B704780B483B0B4
:1056600000AF78607B681B7F18460C37BD465DF83D
:10567000047B704780B485B000AF786039603B68C8
:10568000002B04D17B6893F83E30DBB213E03B681B
:10569000042B04D17B6893F83F30DBB20BE03B680E
:1056A000082B04D17B6893F84030DBB203E07B68C1
:1056B00093F84130DBB2FB73FB7B18461437BD46D1
:1056C0005DF8047B704780B483B000AF78607B687E
:1056D00093F84630DBB218460C37BD465DF8047BC4
:1056E000704780B584B000AF78607B689B6BFB60CF
:1056F000FB685B6A7A689A4207D1FB6801221A77D5
:10570000FB68012283F83E202AE0FB689B6A7A68E6
:105710009A4207D1FB6802221A77FB68012283F8BC
:105720003F201DE0FB68DB6A7A689A4207D1FB687C
:1057300004221A77FB68012283F8402010E0FB68FE
:105740001B6B7A689A4207D1FB6808221A77FB68BC
:10575000012283F8412003E0FB68012283F83D2009
:10576000F868FFF71DFFFB6800221A7700BF1037AB
:10577000BD4680BD80B584B000AF78607B689B6B10
:10578000FB60FB685B6A7A689A420BD1FB68012276
:105790001A777B68DB69002B36D1FB68012283F81E
:1057A0003E2031E0FB689B6A7A689A420BD1FB6825
:1057B00002221A777B68DB69002B25D1FB68012266
:1057C00083F83F2020E0FB68DB6A7A689A420BD1BD
:1057D000FB6804221A777B68DB69002B14D1FB6815
:1057E000012283F840200FE0FB681B6B7A689A4225
:1057F0000AD1FB6808221A777B68DB69002B03D18A
:10580000FB68012283F84120F868FFF7A1FEFB68DE
:1058100000221A7700BF1037BD4680BD80B584B026
:1058200000AF78607B689B6BFB60FB685B6A7A68A3
:105830009A4203D1FB6801221A7719E0FB689B6A40
:105840007A689A4203D1FB6802221A7710E0FB685B
:10585000DB6A7A689A4203D1FB6804221A7707E070
:10586000FB681B6B7A689A4202D1FB6808221A77A0
:10587000F868FFF777FEFB6800221A7700BF103741
:10588000BD4680BD80B584B000AF78607B689B6BFF
:10589000FB60FB685B6A7A689A420FD1FB68012261
:1058A0001A777B68DB69002B46D1FB68012283F8FD
:1058B0003E20FB68012283F842203DE0FB689B6AA2
:1058C0007A689A420FD1FB6802221A777B68DB69FB
:1058D000002B31D1FB68012283F83F20FB680122B5
:1058E00083F8432028E0FB68DB6A7A689A420FD18C
:1058F000FB6804221A777B68DB69002B1CD1FB68EC
:10590000012283F84020FB68012283F8442013E041
:10591000FB681B6B7A689A420ED1FB6808221A77E3
:105920007B68DB69002B07D1FB68012283F84120EB
:10593000FB68012283F84520F868FFF7F5FDFB6856
:1059400000221A7700BF1037BD4680BD80B584B0F5
:1059500000AF78607B689B6BFB60FB685B6A7A6872
:105960009A4203D1FB6801221A7719E0FB689B6A0F
:105970007A689A4203D1FB6802221A7710E0FB682A
:10598000DB6A7A689A4203D1FB6804221A7707E03F
:10599000FB681B6B7A689A4202D1FB6808221A776F
:1059A000F868FFF7CBFDFB6800221A7700BF1037BD
:1059B000BD4680BD80B584B000AF78607B689B6BCE
:1059C000FB60FB681B6ADB69002B03D1FB680122CB
:1059D00083F83D20F868FFF789FD00BF1037BD460A
:1059E00080BD80B584B000AF78607B689B6BFB6046
:1059F000F868FFF785FD00BF1037BD4680BD80B554
:105A000084B000AF78607B689B6BFB60FB689B6B2E
:105A1000DB69002B03D1FB68012283F83D20F86885
:105A2000FFF7AAFD00BF1037BD4680BD80B584B02A
:105A300000AF78607B689B6BFB60F868FFF7A6FDA2
:105A400000BF1037BD4680BD80B485B000AF786020
:105A500039607B681B68FB607B68344A93420FD0D7
:105A60007B68B3F1804F0BD07B68314A934207D0FB
:105A70007B68304A934203D07B682F4A934208D117
:105A8000FB6823F07003FB603B685B68FA681343B4
:105A9000FB607B68254A93421BD07B68B3F1804F43
:105AA00017D07B68224A934213D07B68214A9342E5
:105AB0000FD07B68204A93420BD07B681F4A9342E9
:105AC00007D07B681E4A934203D07B681D4A9342ED
:105AD00008D1FB6823F44073FB603B68DB68FA681D
